{
  "_format": "hh-sol-artifact-1",
  "contractName": "MyEpicNFT",
  "sourceName": "contracts/MyEpicNFT.sol",
  "abi": [
    {
      "inputs": [],
      "stateMutability": "nonpayable",
      "type": "constructor"
    },
    {
      "anonymous": false,
      "inputs": [
        {
          "indexed": true,
          "internalType": "address",
          "name": "owner",
          "type": "address"
        },
        {
          "indexed": true,
          "internalType": "address",
          "name": "approved",
          "type": "address"
        },
        {
          "indexed": true,
          "internalType": "uint256",
          "name": "tokenId",
          "type": "uint256"
        }
      ],
      "name": "Approval",
      "type": "event"
    },
    {
      "anonymous": false,
      "inputs": [
        {
          "indexed": true,
          "internalType": "address",
          "name": "owner",
          "type": "address"
        },
        {
          "indexed": true,
          "internalType": "address",
          "name": "operator",
          "type": "address"
        },
        {
          "indexed": false,
          "internalType": "bool",
          "name": "approved",
          "type": "bool"
        }
      ],
      "name": "ApprovalForAll",
      "type": "event"
    },
    {
      "anonymous": false,
      "inputs": [
        {
          "indexed": false,
          "internalType": "address",
          "name": "sender",
          "type": "address"
        },
        {
          "indexed": false,
          "internalType": "uint256",
          "name": "tokenId",
          "type": "uint256"
        }
      ],
      "name": "NewEpicNFTMinted",
      "type": "event"
    },
    {
      "anonymous": false,
      "inputs": [
        {
          "indexed": true,
          "internalType": "address",
          "name": "from",
          "type": "address"
        },
        {
          "indexed": true,
          "internalType": "address",
          "name": "to",
          "type": "address"
        },
        {
          "indexed": true,
          "internalType": "uint256",
          "name": "tokenId",
          "type": "uint256"
        }
      ],
      "name": "Transfer",
      "type": "event"
    },
    {
      "inputs": [
        {
          "internalType": "address",
          "name": "to",
          "type": "address"
        },
        {
          "internalType": "uint256",
          "name": "tokenId",
          "type": "uint256"
        }
      ],
      "name": "approve",
      "outputs": [],
      "stateMutability": "nonpayable",
      "type": "function"
    },
    {
      "inputs": [
        {
          "internalType": "address",
          "name": "owner",
          "type": "address"
        }
      ],
      "name": "balanceOf",
      "outputs": [
        {
          "internalType": "uint256",
          "name": "",
          "type": "uint256"
        }
      ],
      "stateMutability": "view",
      "type": "function"
    },
    {
      "inputs": [
        {
          "internalType": "uint256",
          "name": "tokenId",
          "type": "uint256"
        }
      ],
      "name": "getApproved",
      "outputs": [
        {
          "internalType": "address",
          "name": "",
          "type": "address"
        }
      ],
      "stateMutability": "view",
      "type": "function"
    },
    {
      "inputs": [
        {
          "internalType": "address",
          "name": "owner",
          "type": "address"
        },
        {
          "internalType": "address",
          "name": "operator",
          "type": "address"
        }
      ],
      "name": "isApprovedForAll",
      "outputs": [
        {
          "internalType": "bool",
          "name": "",
          "type": "bool"
        }
      ],
      "stateMutability": "view",
      "type": "function"
    },
    {
      "inputs": [],
      "name": "makeAnEpicNFT",
      "outputs": [],
      "stateMutability": "nonpayable",
      "type": "function"
    },
    {
      "inputs": [],
      "name": "name",
      "outputs": [
        {
          "internalType": "string",
          "name": "",
          "type": "string"
        }
      ],
      "stateMutability": "view",
      "type": "function"
    },
    {
      "inputs": [
        {
          "internalType": "uint256",
          "name": "tokenId",
          "type": "uint256"
        }
      ],
      "name": "ownerOf",
      "outputs": [
        {
          "internalType": "address",
          "name": "",
          "type": "address"
        }
      ],
      "stateMutability": "view",
      "type": "function"
    },
    {
      "inputs": [
        {
          "internalType": "uint256",
          "name": "tokenId",
          "type": "uint256"
        }
      ],
      "name": "pickRandomColor",
      "outputs": [
        {
          "internalType": "string",
          "name": "",
          "type": "string"
        }
      ],
      "stateMutability": "view",
      "type": "function"
    },
    {
      "inputs": [
        {
          "internalType": "uint256",
          "name": "tokenId",
          "type": "uint256"
        }
      ],
      "name": "pickRandomFirstWord",
      "outputs": [
        {
          "internalType": "string",
          "name": "",
          "type": "string"
        }
      ],
      "stateMutability": "view",
      "type": "function"
    },
    {
      "inputs": [
        {
          "internalType": "uint256",
          "name": "tokenId",
          "type": "uint256"
        }
      ],
      "name": "pickRandomSecondWord",
      "outputs": [
        {
          "internalType": "string",
          "name": "",
          "type": "string"
        }
      ],
      "stateMutability": "view",
      "type": "function"
    },
    {
      "inputs": [
        {
          "internalType": "uint256",
          "name": "tokenId",
          "type": "uint256"
        }
      ],
      "name": "pickRandomThirdWord",
      "outputs": [
        {
          "internalType": "string",
          "name": "",
          "type": "string"
        }
      ],
      "stateMutability": "view",
      "type": "function"
    },
    {
      "inputs": [
        {
          "internalType": "address",
          "name": "from",
          "type": "address"
        },
        {
          "internalType": "address",
          "name": "to",
          "type": "address"
        },
        {
          "internalType": "uint256",
          "name": "tokenId",
          "type": "uint256"
        }
      ],
      "name": "safeTransferFrom",
      "outputs": [],
      "stateMutability": "nonpayable",
      "type": "function"
    },
    {
      "inputs": [
        {
          "internalType": "address",
          "name": "from",
          "type": "address"
        },
        {
          "internalType": "address",
          "name": "to",
          "type": "address"
        },
        {
          "internalType": "uint256",
          "name": "tokenId",
          "type": "uint256"
        },
        {
          "internalType": "bytes",
          "name": "data",
          "type": "bytes"
        }
      ],
      "name": "safeTransferFrom",
      "outputs": [],
      "stateMutability": "nonpayable",
      "type": "function"
    },
    {
      "inputs": [
        {
          "internalType": "address",
          "name": "operator",
          "type": "address"
        },
        {
          "internalType": "bool",
          "name": "approved",
          "type": "bool"
        }
      ],
      "name": "setApprovalForAll",
      "outputs": [],
      "stateMutability": "nonpayable",
      "type": "function"
    },
    {
      "inputs": [
        {
          "internalType": "bytes4",
          "name": "interfaceId",
          "type": "bytes4"
        }
      ],
      "name": "supportsInterface",
      "outputs": [
        {
          "internalType": "bool",
          "name": "",
          "type": "bool"
        }
      ],
      "stateMutability": "view",
      "type": "function"
    },
    {
      "inputs": [],
      "name": "symbol",
      "outputs": [
        {
          "internalType": "string",
          "name": "",
          "type": "string"
        }
      ],
      "stateMutability": "view",
      "type": "function"
    },
    {
      "inputs": [
        {
          "internalType": "uint256",
          "name": "tokenId",
          "type": "uint256"
        }
      ],
      "name": "tokenURI",
      "outputs": [
        {
          "internalType": "string",
          "name": "",
          "type": "string"
        }
      ],
      "stateMutability": "view",
      "type": "function"
    },
    {
      "inputs": [
        {
          "internalType": "address",
          "name": "from",
          "type": "address"
        },
        {
          "internalType": "address",
          "name": "to",
          "type": "address"
        },
        {
          "internalType": "uint256",
          "name": "tokenId",
          "type": "uint256"
        }
      ],
      "name": "transferFrom",
      "outputs": [],
      "stateMutability": "nonpayable",
      "type": "function"
    }
  ],
  "bytecode": "0x608060405260405180610100016040528060d3815260200162004f8b60d39139600890816200002f919062001213565b506040518060800160405280605681526020016200505e60569139600990816200005a919062001213565b50604051806101e001604052806040518060400160405280600781526020017f747562756c61720000000000000000000000000000000000000000000000000081525081526020016040518060400160405280600881526020017f7374756e6e696e6700000000000000000000000000000000000000000000000081525081526020016040518060400160405280600981526020017f657863656c6c656e74000000000000000000000000000000000000000000000081525081526020016040518060400160405280600381526020017f726164000000000000000000000000000000000000000000000000000000000081525081526020016040518060400160405280600481526020017f657069630000000000000000000000000000000000000000000000000000000081525081526020016040518060400160405280600781526020017f617765736f6d650000000000000000000000000000000000000000000000000081525081526020016040518060400160405280600981526020017f66616e746173746963000000000000000000000000000000000000000000000081525081526020016040518060400160405280600881526020017f7465727269626c6500000000000000000000000000000000000000000000000081525081526020016040518060400160405280600581526020017f6372617a7900000000000000000000000000000000000000000000000000000081525081526020016040518060400160405280600481526020017f77696c640000000000000000000000000000000000000000000000000000000081525081526020016040518060400160405280600681526020017f73706f6f6b79000000000000000000000000000000000000000000000000000081525081526020016040518060400160405280600a81526020017f74657272696679696e670000000000000000000000000000000000000000000081525081526020016040518060400160405280600381526020017f736164000000000000000000000000000000000000000000000000000000000081525081526020016040518060400160405280600781526020017f7261756e6368790000000000000000000000000000000000000000000000000081525081526020016040518060400160405280600a81526020017f7269646963756c6f757300000000000000000000000000000000000000000000815250815250600a90600f620003ec92919062000e4c565b50604051806101e001604052806040518060400160405280600481526020017f69506f640000000000000000000000000000000000000000000000000000000081525081526020016040518060400160405280600681526020017f6950686f6e65000000000000000000000000000000000000000000000000000081525081526020016040518060400160405280600481526020017f695061640000000000000000000000000000000000000000000000000000000081525081526020016040518060400160405280600781526020017f4d6163626f6f6b0000000000000000000000000000000000000000000000000081525081526020016040518060400160405280600681526020017f4d616350726f000000000000000000000000000000000000000000000000000081525081526020016040518060400160405280600481526020017f694d61630000000000000000000000000000000000000000000000000000000081525081526020016040518060400160405280600681526020017f587365727665000000000000000000000000000000000000000000000000000081525081526020016040518060400160405280600681526020017f4e6577746f6e000000000000000000000000000000000000000000000000000081525081526020016040518060400160405280600981526020017f506f776572626f6f6b000000000000000000000000000000000000000000000081525081526020016040518060400160405280600581526020017f69426f6f6b00000000000000000000000000000000000000000000000000000081525081526020016040518060400160405280600681526020017f416972546167000000000000000000000000000000000000000000000000000081525081526020016040518060400160405280600581526020017f576174636800000000000000000000000000000000000000000000000000000081525081526020016040518060400160405280600781526020017f486f6d65506f640000000000000000000000000000000000000000000000000081525081526020016040518060400160405280600781526020017f416972506f64730000000000000000000000000000000000000000000000000081525081526020016040518060400160405280600481526020017f654d616300000000000000000000000000000000000000000000000000000000815250815250600b90600f6200077e92919062000e4c565b50604051806101e001604052806040518060400160405280600681526020017f657870616e64000000000000000000000000000000000000000000000000000081525081526020016040518060400160405280600781526020017f626c6f73736f6d0000000000000000000000000000000000000000000000000081525081526020016040518060400160405280600381526020017f627564000000000000000000000000000000000000000000000000000000000081525081526020016040518060400160405280600481526020017f706f73790000000000000000000000000000000000000000000000000000000081525081526020016040518060400160405280600781526020017f626f75717565740000000000000000000000000000000000000000000000000081525081526020016040518060400160405280600681526020017f666c6f726574000000000000000000000000000000000000000000000000000081525081526020016040518060400160405280600481526020017f67726f770000000000000000000000000000000000000000000000000000000081525081526020016040518060400160405280600981526020017f656e6c69676874656e000000000000000000000000000000000000000000000081525081526020016040518060400160405280600681526020017f657870616e64000000000000000000000000000000000000000000000000000081525081526020016040518060400160405280600881526020017f696e63726561736500000000000000000000000000000000000000000000000081525081526020016040518060400160405280600581526020017f626c6f6f6d00000000000000000000000000000000000000000000000000000081525081526020016040518060400160405280600681526020017f737072656164000000000000000000000000000000000000000000000000000081525081526020016040518060400160405280600581526020017f7370696b6500000000000000000000000000000000000000000000000000000081525081526020016040518060400160405280600781526020017f726164696174650000000000000000000000000000000000000000000000000081525081526020016040518060400160405280600581526020017f737061726b000000000000000000000000000000000000000000000000000000815250815250600c90600f62000b1092919062000e4c565b506040518060c001604052806040518060400160405280600781526020017f234445333136330000000000000000000000000000000000000000000000000081525081526020016040518060400160405280600781526020017f234646424344390000000000000000000000000000000000000000000000000081525081526020016040518060400160405280600781526020017f234646464444300000000000000000000000000000000000000000000000000081525081526020016040518060400160405280600781526020017f234344374633320000000000000000000000000000000000000000000000000081525081526020016040518060400160405280600781526020017f233739343334420000000000000000000000000000000000000000000000000081525081526020016040518060400160405280600681526020017f6434626264320000000000000000000000000000000000000000000000000000815250815250600d90600662000c8e92919062000eac565b5034801562000c9c57600080fd5b506040518060400160405280600981526020017f5371756172654e465400000000000000000000000000000000000000000000008152506040518060400160405280600681526020017f5351554152450000000000000000000000000000000000000000000000000000815250816000908162000d1a919062001213565b50806001908162000d2c919062001213565b50505062000d7a6040518060400160405280601e81526020017f54686973206973206d79204e465420636f6e74726163742e20576f616821000081525062000d8060201b620010e51760201c565b620013ad565b62000e208160405160240162000d97919062001389565b6040516020818303038152906040527f41304fac000000000000000000000000000000000000000000000000000000007bffffffffffffffffffffffffffffffffffffffffffffffffffffffff19166020820180517bffffffffffffffffffffffffffffffffffffffffffffffffffffffff838183161783525050505062000e2360201b60201c565b50565b60008151905060006a636f6e736f6c652e6c6f679050602083016000808483855afa5050505050565b82805482825590600052602060002090810192821562000e99579160200282015b8281111562000e9857825182908162000e87919062001213565b509160200191906001019062000e6d565b5b50905062000ea8919062000f0c565b5090565b82805482825590600052602060002090810192821562000ef9579160200282015b8281111562000ef857825182908162000ee7919062001213565b509160200191906001019062000ecd565b5b50905062000f08919062000f0c565b5090565b5b8082111562000f30576000818162000f26919062000f34565b5060010162000f0d565b5090565b50805462000f429062001002565b6000825580601f1062000f56575062000f77565b601f01602090049060005260206000209081019062000f76919062000f7a565b5b50565b5b8082111562000f9557600081600090555060010162000f7b565b5090565b600081519050919050565b7f4e487b7100000000000000000000000000000000000000000000000000000000600052604160045260246000fd5b7f4e487b7100000000000000000000000000000000000000000000000000000000600052602260045260246000fd5b600060028204905060018216806200101b57607f821691505b60208210810362001031576200103062000fd3565b5b50919050565b60008190508160005260206000209050919050565b60006020601f8301049050919050565b600082821b905092915050565b6000600883026200109b7fffffffffffffffffffffffffffffffffffffffffffffffffffffffffffffffff826200105c565b620010a786836200105c565b95508019841693508086168417925050509392505050565b6000819050919050565b6000819050919050565b6000620010f4620010ee620010e884620010bf565b620010c9565b620010bf565b9050919050565b6000819050919050565b6200111083620010d3565b620011286200111f82620010fb565b84845462001069565b825550505050565b600090565b6200113f62001130565b6200114c81848462001105565b505050565b5b8181101562001174576200116860008262001135565b60018101905062001152565b5050565b601f821115620011c3576200118d8162001037565b62001198846200104c565b81016020851015620011a8578190505b620011c0620011b7856200104c565b83018262001151565b50505b505050565b600082821c905092915050565b6000620011e860001984600802620011c8565b1980831691505092915050565b6000620012038383620011d5565b9150826002028217905092915050565b6200121e8262000f99565b67ffffffffffffffff8111156200123a576200123962000fa4565b5b62001246825462001002565b6200125382828562001178565b600060209050601f8311600181146200128b576000841562001276578287015190505b620012828582620011f5565b865550620012f2565b601f1984166200129b8662001037565b60005b82811015620012c5578489015182556001820191506020850194506020810190506200129e565b86831015620012e55784890151620012e1601f891682620011d5565b8355505b6001600288020188555050505b505050505050565b600082825260208201905092915050565b60005b838110156200132b5780820151818401526020810190506200130e565b60008484015250505050565b6000601f19601f8301169050919050565b6000620013558262000f99565b620013618185620012fa565b9350620013738185602086016200130b565b6200137e8162001337565b840191505092915050565b60006020820190508181036000830152620013a5818462001348565b905092915050565b613bce80620013bd6000396000f3fe608060405234801561001057600080fd5b50600436106101165760003560e01c806370a08231116100a2578063b88d4fde11610071578063b88d4fde14610317578063c575757a14610333578063c87b56dd14610363578063de9d132f14610393578063e985e9c51461039d57610116565b806370a082311461027d57806395d89b41146102ad578063a22cb465146102cb578063b187301f146102e757610116565b806323b872dd116100e957806323b872dd146101b55780632de38d68146101d157806342842e0e14610201578063514dc8c61461021d5780636352211e1461024d57610116565b806301ffc9a71461011b57806306fdde031461014b578063081812fc14610169578063095ea7b314610199575b600080fd5b61013560048036038101906101309190612463565b6103cd565b60405161014291906124ab565b60405180910390f35b6101536104af565b6040516101609190612556565b60405180910390f35b610183600480360381019061017e91906125ae565b610541565b604051610190919061261c565b60405180910390f35b6101b360048036038101906101ae9190612663565b610587565b005b6101cf60048036038101906101ca91906126a3565b61069e565b005b6101eb60048036038101906101e691906125ae565b6106fe565b6040516101f89190612556565b60405180910390f35b61021b600480360381019061021691906126a3565b6107f6565b005b610237600480360381019061023291906125ae565b610816565b6040516102449190612556565b60405180910390f35b610267600480360381019061026291906125ae565b61090e565b604051610274919061261c565b60405180910390f35b610297600480360381019061029291906126f6565b610994565b6040516102a49190612732565b60405180910390f35b6102b5610a4b565b6040516102c29190612556565b60405180910390f35b6102e560048036038101906102e09190612779565b610add565b005b61030160048036038101906102fc91906125ae565b610af3565b60405161030e9190612556565b60405180910390f35b610331600480360381019061032c91906128ee565b610beb565b005b61034d600480360381019061034891906125ae565b610c4d565b60405161035a9190612556565b60405180910390f35b61037d600480360381019061037891906125ae565b610d45565b60405161038a9190612556565b60405180910390f35b61039b610e57565b005b6103b760048036038101906103b29190612971565b611051565b6040516103c491906124ab565b60405180910390f35b60007f80ac58cd000000000000000000000000000000000000000000000000000000007bffffffffffffffffffffffffffffffffffffffffffffffffffffffff1916827bffffffffffffffffffffffffffffffffffffffffffffffffffffffff1916148061049857507f5b5e139f000000000000000000000000000000000000000000000000000000007bffffffffffffffffffffffffffffffffffffffffffffffffffffffff1916827bffffffffffffffffffffffffffffffffffffffffffffffffffffffff1916145b806104a857506104a78261117e565b5b9050919050565b6060600080546104be906129e0565b80601f01602080910402602001604051908101604052809291908181526020018280546104ea906129e0565b80156105375780601f1061050c57610100808354040283529160200191610537565b820191906000526020600020905b81548152906001019060200180831161051a57829003601f168201915b5050505050905090565b600061054c826111e8565b6004600083815260200190815260200160002060009054906101000a900473ffffffffffffffffffffffffffffffffffffffff169050919050565b60006105928261090e565b90508073ffffffffffffffffffffffffffffffffffffffff168373ffffffffffffffffffffffffffffffffffffffff1603610602576040517f08c379a00000000000000000000000000000000000000000000000000000000081526004016105f990612a83565b60405180910390fd5b8073ffffffffffffffffffffffffffffffffffffffff16610621611233565b73ffffffffffffffffffffffffffffffffffffffff161480610650575061064f8161064a611233565b611051565b5b61068f576040517f08c379a000000000000000000000000000000000000000000000000000000000815260040161068690612b15565b60405180910390fd5b610699838361123b565b505050565b6106af6106a9611233565b826112f4565b6106ee576040517f08c379a00000000000000000000000000000000000000000000000000000000081526004016106e590612ba7565b60405180910390fd5b6106f9838383611389565b505050565b6060600061073261070e84611682565b60405160200161071e9190612c4f565b604051602081830303815290604052611750565b9050600a80549050816107459190612ca0565b9050600a818154811061075b5761075a612cd1565b5b906000526020600020018054610770906129e0565b80601f016020809104026020016040519081016040528092919081815260200182805461079c906129e0565b80156107e95780601f106107be576101008083540402835291602001916107e9565b820191906000526020600020905b8154815290600101906020018083116107cc57829003601f168201915b5050505050915050919050565b61081183838360405180602001604052806000815250610beb565b505050565b6060600061084a61082684611682565b6040516020016108369190612d4c565b604051602081830303815290604052611750565b9050600d805490508161085d9190612ca0565b9050600d818154811061087357610872612cd1565b5b906000526020600020018054610888906129e0565b80601f01602080910402602001604051908101604052809291908181526020018280546108b4906129e0565b80156109015780601f106108d657610100808354040283529160200191610901565b820191906000526020600020905b8154815290600101906020018083116108e457829003601f168201915b5050505050915050919050565b60008061091a83611783565b9050600073ffffffffffffffffffffffffffffffffffffffff168173ffffffffffffffffffffffffffffffffffffffff160361098b576040517f08c379a000000000000000000000000000000000000000000000000000000000815260040161098290612dba565b60405180910390fd5b80915050919050565b60008073ffffffffffffffffffffffffffffffffffffffff168273ffffffffffffffffffffffffffffffffffffffff1603610a04576040517f08c379a00000000000000000000000000000000000000000000000000000000081526004016109fb90612e4c565b60405180910390fd5b600360008373ffffffffffffffffffffffffffffffffffffffff1673ffffffffffffffffffffffffffffffffffffffff168152602001908152602001600020549050919050565b606060018054610a5a906129e0565b80601f0160208091040260200160405190810160405280929190818152602001828054610a86906129e0565b8015610ad35780601f10610aa857610100808354040283529160200191610ad3565b820191906000526020600020905b815481529060010190602001808311610ab657829003601f168201915b5050505050905090565b610aef610ae8611233565b83836117c0565b5050565b60606000610b27610b0384611682565b604051602001610b139190612eb8565b604051602081830303815290604052611750565b9050600b8054905081610b3a9190612ca0565b9050600b8181548110610b5057610b4f612cd1565b5b906000526020600020018054610b65906129e0565b80601f0160208091040260200160405190810160405280929190818152602001828054610b91906129e0565b8015610bde5780601f10610bb357610100808354040283529160200191610bde565b820191906000526020600020905b815481529060010190602001808311610bc157829003601f168201915b5050505050915050919050565b610bfc610bf6611233565b836112f4565b610c3b576040517f08c379a0000000000000000000000000000000000000000000000000000000008152600401610c3290612ba7565b60405180910390fd5b610c478484848461192c565b50505050565b60606000610c81610c5d84611682565b604051602001610c6d9190612f26565b604051602081830303815290604052611750565b9050600c8054905081610c949190612ca0565b9050600c8181548110610caa57610ca9612cd1565b5b906000526020600020018054610cbf906129e0565b80601f0160208091040260200160405190810160405280929190818152602001828054610ceb906129e0565b8015610d385780601f10610d0d57610100808354040283529160200191610d38565b820191906000526020600020905b815481529060010190602001808311610d1b57829003601f168201915b5050505050915050919050565b6060610d50826111e8565b6000600660008481526020019081526020016000208054610d70906129e0565b80601f0160208091040260200160405190810160405280929190818152602001828054610d9c906129e0565b8015610de95780601f10610dbe57610100808354040283529160200191610de9565b820191906000526020600020905b815481529060010190602001808311610dcc57829003601f168201915b505050505090506000610dfa611988565b90506000815103610e0f578192505050610e52565b600082511115610e44578082604051602001610e2c929190612f48565b60405160208183030381529060405292505050610e52565b610e4d8461199f565b925050505b919050565b6000610e636007611a07565b90506000610e70826106fe565b90506000610e7d83610af3565b90506000610e8a84610c4d565b90506000838383604051602001610ea393929190612f6c565b60405160208183030381529060405290506000610ebf86610816565b90506000600882600985604051602001610edc9493929190613081565b60405160208183030381529060405290506000610f2184610efc84611a15565b604051602001610f0d929190613220565b604051602081830303815290604052611a15565b9050600081604051602001610f3691906132b1565b6040516020818303038152906040529050610f856040518060400160405280601581526020017f0a2d2d2d2d2d2d2d2d2d2d2d2d2d2d2d2d2d2d2d2d00000000000000000000008152506110e5565b610f8e816110e5565b610fcc6040518060400160405280601581526020017f2d2d2d2d2d2d2d2d2d2d2d2d2d2d2d2d2d2d2d2d0a00000000000000000000008152506110e5565b610fd6338a611bac565b610fe08982611bca565b610fea6007611c37565b61100d604051806060016040528060258152602001613b34602591398a33611c4d565b7febb98688741ffa4c7589bf325de30cf7becb63de567842e1ccdb6cb949fdc82c338a60405161103e9291906132d3565b60405180910390a1505050505050505050565b6000600560008473ffffffffffffffffffffffffffffffffffffffff1673ffffffffffffffffffffffffffffffffffffffff16815260200190815260200160002060008373ffffffffffffffffffffffffffffffffffffffff1673ffffffffffffffffffffffffffffffffffffffff16815260200190815260200160002060009054906101000a900460ff16905092915050565b61117b816040516024016110f99190612556565b6040516020818303038152906040527f41304fac000000000000000000000000000000000000000000000000000000007bffffffffffffffffffffffffffffffffffffffffffffffffffffffff19166020820180517bffffffffffffffffffffffffffffffffffffffffffffffffffffffff8381831617835250505050611cec565b50565b60007f01ffc9a7000000000000000000000000000000000000000000000000000000007bffffffffffffffffffffffffffffffffffffffffffffffffffffffff1916827bffffffffffffffffffffffffffffffffffffffffffffffffffffffff1916149050919050565b6111f181611d15565b611230576040517f08c379a000000000000000000000000000000000000000000000000000000000815260040161122790612dba565b60405180910390fd5b50565b600033905090565b816004600083815260200190815260200160002060006101000a81548173ffffffffffffffffffffffffffffffffffffffff021916908373ffffffffffffffffffffffffffffffffffffffff160217905550808273ffffffffffffffffffffffffffffffffffffffff166112ae8361090e565b73ffffffffffffffffffffffffffffffffffffffff167f8c5be1e5ebec7d5bd14f71427d1e84f3dd0314c0f7b2291e5b200ac8c7c3b92560405160405180910390a45050565b6000806113008361090e565b90508073ffffffffffffffffffffffffffffffffffffffff168473ffffffffffffffffffffffffffffffffffffffff16148061134257506113418185611051565b5b8061138057508373ffffffffffffffffffffffffffffffffffffffff1661136884610541565b73ffffffffffffffffffffffffffffffffffffffff16145b91505092915050565b8273ffffffffffffffffffffffffffffffffffffffff166113a98261090e565b73ffffffffffffffffffffffffffffffffffffffff16146113ff576040517f08c379a00000000000000000000000000000000000000000000000000000000081526004016113f69061336e565b60405180910390fd5b600073ffffffffffffffffffffffffffffffffffffffff168273ffffffffffffffffffffffffffffffffffffffff160361146e576040517f08c379a000000000000000000000000000000000000000000000000000000000815260040161146590613400565b60405180910390fd5b61147b8383836001611d56565b8273ffffffffffffffffffffffffffffffffffffffff1661149b8261090e565b73ffffffffffffffffffffffffffffffffffffffff16146114f1576040517f08c379a00000000000000000000000000000000000000000000000000000000081526004016114e89061336e565b60405180910390fd5b6004600082815260200190815260200160002060006101000a81549073ffffffffffffffffffffffffffffffffffffffff02191690556001600360008573ffffffffffffffffffffffffffffffffffffffff1673ffffffffffffffffffffffffffffffffffffffff168152602001908152602001600020600082825403925050819055506001600360008473ffffffffffffffffffffffffffffffffffffffff1673ffffffffffffffffffffffffffffffffffffffff16815260200190815260200160002060008282540192505081905550816002600083815260200190815260200160002060006101000a81548173ffffffffffffffffffffffffffffffffffffffff021916908373ffffffffffffffffffffffffffffffffffffffff160217905550808273ffffffffffffffffffffffffffffffffffffffff168473ffffffffffffffffffffffffffffffffffffffff167fddf252ad1be2c89b69c2b068fc378daa952ba7f163c4a11628f55a4df523b3ef60405160405180910390a461167d8383836001611e7c565b505050565b60606000600161169184611e82565b01905060008167ffffffffffffffff8111156116b0576116af6127c3565b5b6040519080825280601f01601f1916602001820160405280156116e25781602001600182028036833780820191505090505b509050600082602001820190505b600115611745578080600190039150507f3031323334353637383961626364656600000000000000000000000000000000600a86061a8153600a858161173957611738612c71565b5b049450600085036116f0575b819350505050919050565b6000816040516020016117639190613420565b6040516020818303038152906040528051906020012060001c9050919050565b60006002600083815260200190815260200160002060009054906101000a900473ffffffffffffffffffffffffffffffffffffffff169050919050565b8173ffffffffffffffffffffffffffffffffffffffff168373ffffffffffffffffffffffffffffffffffffffff160361182e576040517f08c379a000000000000000000000000000000000000000000000000000000000815260040161182590613483565b60405180910390fd5b80600560008573ffffffffffffffffffffffffffffffffffffffff1673ffffffffffffffffffffffffffffffffffffffff16815260200190815260200160002060008473ffffffffffffffffffffffffffffffffffffffff1673ffffffffffffffffffffffffffffffffffffffff16815260200190815260200160002060006101000a81548160ff0219169083151502179055508173ffffffffffffffffffffffffffffffffffffffff168373ffffffffffffffffffffffffffffffffffffffff167f17307eab39ab6107e8899845ad3d59bd9653f200f220920489ca2b5937696c318360405161191f91906124ab565b60405180910390a3505050565b611937848484611389565b61194384848484611fd5565b611982576040517f08c379a000000000000000000000000000000000000000000000000000000000815260040161197990613515565b60405180910390fd5b50505050565b606060405180602001604052806000815250905090565b60606119aa826111e8565b60006119b4611988565b905060008151116119d457604051806020016040528060008152506119ff565b806119de84611682565b6040516020016119ef929190612f48565b6040516020818303038152906040525b915050919050565b600081600001549050919050565b606060008251905060008103611a3d5760405180602001604052806000815250915050611ba7565b60006003600283611a4e9190613564565b611a589190613598565b6004611a6491906135c9565b90506000602082611a759190613564565b67ffffffffffffffff811115611a8e57611a8d6127c3565b5b6040519080825280601f01601f191660200182016040528015611ac05781602001600182028036833780820191505090505b5090506000604051806060016040528060408152602001613b59604091399050600181016020830160005b86811015611b645760038101905062ffffff818a015116603f8160121c168401518060081b905060ff603f83600c1c1686015116810190508060081b905060ff603f8360061c1686015116810190508060081b905060ff603f831686015116810190508060e01b90508084526004840193505050611aeb565b506003860660018114611b7e5760028114611b8e57611b99565b613d3d60f01b6002830352611b99565b603d60f81b60018303525b508484525050819450505050505b919050565b611bc682826040518060200160405280600081525061215c565b5050565b611bd382611d15565b611c12576040517f08c379a0000000000000000000000000000000000000000000000000000000008152600401611c099061367d565b60405180910390fd5b80600660008481526020019081526020016000209081611c329190613834565b505050565b6001816000016000828254019250508190555050565b611ce7838383604051602401611c6593929190613906565b6040516020818303038152906040527f1c7ec448000000000000000000000000000000000000000000000000000000007bffffffffffffffffffffffffffffffffffffffffffffffffffffffff19166020820180517bffffffffffffffffffffffffffffffffffffffffffffffffffffffff8381831617835250505050611cec565b505050565b60008151905060006a636f6e736f6c652e6c6f679050602083016000808483855afa5050505050565b60008073ffffffffffffffffffffffffffffffffffffffff16611d3783611783565b73ffffffffffffffffffffffffffffffffffffffff1614159050919050565b6001811115611e7657600073ffffffffffffffffffffffffffffffffffffffff168473ffffffffffffffffffffffffffffffffffffffff1614611dea5780600360008673ffffffffffffffffffffffffffffffffffffffff1673ffffffffffffffffffffffffffffffffffffffff1681526020019081526020016000206000828254611de29190613944565b925050819055505b600073ffffffffffffffffffffffffffffffffffffffff168373ffffffffffffffffffffffffffffffffffffffff1614611e755780600360008573ffffffffffffffffffffffffffffffffffffffff1673ffffffffffffffffffffffffffffffffffffffff1681526020019081526020016000206000828254611e6d9190613564565b925050819055505b5b50505050565b50505050565b600080600090507a184f03e93ff9f4daa797ed6e38ed64bf6a1f0100000000000000008310611ee0577a184f03e93ff9f4daa797ed6e38ed64bf6a1f0100000000000000008381611ed657611ed5612c71565b5b0492506040810190505b6d04ee2d6d415b85acef81000000008310611f1d576d04ee2d6d415b85acef81000000008381611f1357611f12612c71565b5b0492506020810190505b662386f26fc100008310611f4c57662386f26fc100008381611f4257611f41612c71565b5b0492506010810190505b6305f5e1008310611f75576305f5e1008381611f6b57611f6a612c71565b5b0492506008810190505b6127108310611f9a576127108381611f9057611f8f612c71565b5b0492506004810190505b60648310611fbd5760648381611fb357611fb2612c71565b5b0492506002810190505b600a8310611fcc576001810190505b80915050919050565b6000611ff68473ffffffffffffffffffffffffffffffffffffffff166121b7565b1561214f578373ffffffffffffffffffffffffffffffffffffffff1663150b7a0261201f611233565b8786866040518563ffffffff1660e01b815260040161204194939291906139cd565b6020604051808303816000875af192505050801561207d57506040513d601f19601f8201168201806040525081019061207a9190613a2e565b60015b6120ff573d80600081146120ad576040519150601f19603f3d011682016040523d82523d6000602084013e6120b2565b606091505b5060008151036120f7576040517f08c379a00000000000000000000000000000000000000000000000000000000081526004016120ee90613515565b60405180910390fd5b805181602001fd5b63150b7a0260e01b7bffffffffffffffffffffffffffffffffffffffffffffffffffffffff1916817bffffffffffffffffffffffffffffffffffffffffffffffffffffffff191614915050612154565b600190505b949350505050565b61216683836121da565b6121736000848484611fd5565b6121b2576040517f08c379a00000000000000000000000000000000000000000000000000000000081526004016121a990613515565b60405180910390fd5b505050565b6000808273ffffffffffffffffffffffffffffffffffffffff163b119050919050565b600073ffffffffffffffffffffffffffffffffffffffff168273ffffffffffffffffffffffffffffffffffffffff1603612249576040517f08c379a000000000000000000000000000000000000000000000000000000000815260040161224090613aa7565b60405180910390fd5b61225281611d15565b15612292576040517f08c379a000000000000000000000000000000000000000000000000000000000815260040161228990613b13565b60405180910390fd5b6122a0600083836001611d56565b6122a981611d15565b156122e9576040517f08c379a00000000000000000000000000000000000000000000000000000000081526004016122e090613b13565b60405180910390fd5b6001600360008473ffffffffffffffffffffffffffffffffffffffff1673ffffffffffffffffffffffffffffffffffffffff16815260200190815260200160002060008282540192505081905550816002600083815260200190815260200160002060006101000a81548173ffffffffffffffffffffffffffffffffffffffff021916908373ffffffffffffffffffffffffffffffffffffffff160217905550808273ffffffffffffffffffffffffffffffffffffffff16600073ffffffffffffffffffffffffffffffffffffffff167fddf252ad1be2c89b69c2b068fc378daa952ba7f163c4a11628f55a4df523b3ef60405160405180910390a46123f3600083836001611e7c565b5050565b6000604051905090565b600080fd5b600080fd5b60007fffffffff0000000000000000000000000000000000000000000000000000000082169050919050565b6124408161240b565b811461244b57600080fd5b50565b60008135905061245d81612437565b92915050565b60006020828403121561247957612478612401565b5b60006124878482850161244e565b91505092915050565b60008115159050919050565b6124a581612490565b82525050565b60006020820190506124c0600083018461249c565b92915050565b600081519050919050565b600082825260208201905092915050565b60005b838110156125005780820151818401526020810190506124e5565b60008484015250505050565b6000601f19601f8301169050919050565b6000612528826124c6565b61253281856124d1565b93506125428185602086016124e2565b61254b8161250c565b840191505092915050565b60006020820190508181036000830152612570818461251d565b905092915050565b6000819050919050565b61258b81612578565b811461259657600080fd5b50565b6000813590506125a881612582565b92915050565b6000602082840312156125c4576125c3612401565b5b60006125d284828501612599565b91505092915050565b600073ffffffffffffffffffffffffffffffffffffffff82169050919050565b6000612606826125db565b9050919050565b612616816125fb565b82525050565b6000602082019050612631600083018461260d565b92915050565b612640816125fb565b811461264b57600080fd5b50565b60008135905061265d81612637565b92915050565b6000806040838503121561267a57612679612401565b5b60006126888582860161264e565b925050602061269985828601612599565b9150509250929050565b6000806000606084860312156126bc576126bb612401565b5b60006126ca8682870161264e565b93505060206126db8682870161264e565b92505060406126ec86828701612599565b9150509250925092565b60006020828403121561270c5761270b612401565b5b600061271a8482850161264e565b91505092915050565b61272c81612578565b82525050565b60006020820190506127476000830184612723565b92915050565b61275681612490565b811461276157600080fd5b50565b6000813590506127738161274d565b92915050565b600080604083850312156127905761278f612401565b5b600061279e8582860161264e565b92505060206127af85828601612764565b9150509250929050565b600080fd5b600080fd5b7f4e487b7100000000000000000000000000000000000000000000000000000000600052604160045260246000fd5b6127fb8261250c565b810181811067ffffffffffffffff8211171561281a576128196127c3565b5b80604052505050565b600061282d6123f7565b905061283982826127f2565b919050565b600067ffffffffffffffff821115612859576128586127c3565b5b6128628261250c565b9050602081019050919050565b82818337600083830152505050565b600061289161288c8461283e565b612823565b9050828152602081018484840111156128ad576128ac6127be565b5b6128b884828561286f565b509392505050565b600082601f8301126128d5576128d46127b9565b5b81356128e584826020860161287e565b91505092915050565b6000806000806080858703121561290857612907612401565b5b60006129168782880161264e565b94505060206129278782880161264e565b935050604061293887828801612599565b925050606085013567ffffffffffffffff81111561295957612958612406565b5b612965878288016128c0565b91505092959194509250565b6000806040838503121561298857612987612401565b5b60006129968582860161264e565b92505060206129a78582860161264e565b9150509250929050565b7f4e487b7100000000000000000000000000000000000000000000000000000000600052602260045260246000fd5b600060028204905060018216806129f857607f821691505b602082108103612a0b57612a0a6129b1565b5b50919050565b7f4552433732313a20617070726f76616c20746f2063757272656e74206f776e6560008201527f7200000000000000000000000000000000000000000000000000000000000000602082015250565b6000612a6d6021836124d1565b9150612a7882612a11565b604082019050919050565b60006020820190508181036000830152612a9c81612a60565b9050919050565b7f4552433732313a20617070726f76652063616c6c6572206973206e6f7420746f60008201527f6b656e206f776e6572206f7220617070726f76656420666f7220616c6c000000602082015250565b6000612aff603d836124d1565b9150612b0a82612aa3565b604082019050919050565b60006020820190508181036000830152612b2e81612af2565b9050919050565b7f4552433732313a2063616c6c6572206973206e6f7420746f6b656e206f776e6560008201527f72206f7220617070726f76656400000000000000000000000000000000000000602082015250565b6000612b91602d836124d1565b9150612b9c82612b35565b604082019050919050565b60006020820190508181036000830152612bc081612b84565b9050919050565b600081905092915050565b7f46495253545f574f524400000000000000000000000000000000000000000000600082015250565b6000612c08600a83612bc7565b9150612c1382612bd2565b600a82019050919050565b6000612c29826124c6565b612c338185612bc7565b9350612c438185602086016124e2565b80840191505092915050565b6000612c5a82612bfb565b9150612c668284612c1e565b915081905092915050565b7f4e487b7100000000000000000000000000000000000000000000000000000000600052601260045260246000fd5b6000612cab82612578565b9150612cb683612578565b925082612cc657612cc5612c71565b5b828206905092915050565b7f4e487b7100000000000000000000000000000000000000000000000000000000600052603260045260246000fd5b7f434f4c4f52000000000000000000000000000000000000000000000000000000600082015250565b6000612d36600583612bc7565b9150612d4182612d00565b600582019050919050565b6000612d5782612d29565b9150612d638284612c1e565b915081905092915050565b7f4552433732313a20696e76616c696420746f6b656e2049440000000000000000600082015250565b6000612da46018836124d1565b9150612daf82612d6e565b602082019050919050565b60006020820190508181036000830152612dd381612d97565b9050919050565b7f4552433732313a2061646472657373207a65726f206973206e6f74206120766160008201527f6c6964206f776e65720000000000000000000000000000000000000000000000602082015250565b6000612e366029836124d1565b9150612e4182612dda565b604082019050919050565b60006020820190508181036000830152612e6581612e29565b9050919050565b7f5345434f4e445f574f5244000000000000000000000000000000000000000000600082015250565b6000612ea2600b83612bc7565b9150612ead82612e6c565b600b82019050919050565b6000612ec382612e95565b9150612ecf8284612c1e565b915081905092915050565b7f54484952445f574f524400000000000000000000000000000000000000000000600082015250565b6000612f10600a83612bc7565b9150612f1b82612eda565b600a82019050919050565b6000612f3182612f03565b9150612f3d8284612c1e565b915081905092915050565b6000612f548285612c1e565b9150612f608284612c1e565b91508190509392505050565b6000612f788286612c1e565b9150612f848285612c1e565b9150612f908284612c1e565b9150819050949350505050565b60008190508160005260206000209050919050565b60008154612fbf816129e0565b612fc98186612bc7565b94506001821660008114612fe45760018114612ff95761302c565b60ff198316865281151582028601935061302c565b61300285612f9d565b60005b8381101561302457815481890152600182019150602081019050613005565b838801955050505b50505092915050565b7f3c2f746578743e3c2f7376673e00000000000000000000000000000000000000600082015250565b600061306b600d83612bc7565b915061307682613035565b600d82019050919050565b600061308d8287612fb2565b91506130998286612c1e565b91506130a58285612fb2565b91506130b18284612c1e565b91506130bc8261305e565b915081905095945050505050565b7f7b226e616d65223a202200000000000000000000000000000000000000000000600082015250565b6000613100600a83612bc7565b915061310b826130ca565b600a82019050919050565b7f222c20226465736372697074696f6e223a20224120686967686c79206163636c60008201527f61696d656420636f6c6c656374696f6e206f6620737175617265732e222c202260208201527f696d616765223a2022646174613a696d6167652f7376672b786d6c3b6261736560408201527f36342c0000000000000000000000000000000000000000000000000000000000606082015250565b60006131be606383612bc7565b91506131c982613116565b606382019050919050565b7f227d000000000000000000000000000000000000000000000000000000000000600082015250565b600061320a600283612bc7565b9150613215826131d4565b600282019050919050565b600061322b826130f3565b91506132378285612c1e565b9150613242826131b1565b915061324e8284612c1e565b9150613259826131fd565b91508190509392505050565b7f646174613a6170706c69636174696f6e2f6a736f6e3b6261736536342c000000600082015250565b600061329b601d83612bc7565b91506132a682613265565b601d82019050919050565b60006132bc8261328e565b91506132c88284612c1e565b915081905092915050565b60006040820190506132e8600083018561260d565b6132f56020830184612723565b9392505050565b7f4552433732313a207472616e736665722066726f6d20696e636f72726563742060008201527f6f776e6572000000000000000000000000000000000000000000000000000000602082015250565b60006133586025836124d1565b9150613363826132fc565b604082019050919050565b600060208201905081810360008301526133878161334b565b9050919050565b7f4552433732313a207472616e7366657220746f20746865207a65726f2061646460008201527f7265737300000000000000000000000000000000000000000000000000000000602082015250565b60006133ea6024836124d1565b91506133f58261338e565b604082019050919050565b60006020820190508181036000830152613419816133dd565b9050919050565b600061342c8284612c1e565b915081905092915050565b7f4552433732313a20617070726f766520746f2063616c6c657200000000000000600082015250565b600061346d6019836124d1565b915061347882613437565b602082019050919050565b6000602082019050818103600083015261349c81613460565b9050919050565b7f4552433732313a207472616e7366657220746f206e6f6e20455243373231526560008201527f63656976657220696d706c656d656e7465720000000000000000000000000000602082015250565b60006134ff6032836124d1565b915061350a826134a3565b604082019050919050565b6000602082019050818103600083015261352e816134f2565b9050919050565b7f4e487b7100000000000000000000000000000000000000000000000000000000600052601160045260246000fd5b600061356f82612578565b915061357a83612578565b925082820190508082111561359257613591613535565b5b92915050565b60006135a382612578565b91506135ae83612578565b9250826135be576135bd612c71565b5b828204905092915050565b60006135d482612578565b91506135df83612578565b92508282026135ed81612578565b9150828204841483151761360457613603613535565b5b5092915050565b7f45524337323155524953746f726167653a2055524920736574206f66206e6f6e60008201527f6578697374656e7420746f6b656e000000000000000000000000000000000000602082015250565b6000613667602e836124d1565b91506136728261360b565b604082019050919050565b600060208201905081810360008301526136968161365a565b9050919050565b60006020601f8301049050919050565b600082821b905092915050565b6000600883026136ea7fffffffffffffffffffffffffffffffffffffffffffffffffffffffffffffffff826136ad565b6136f486836136ad565b95508019841693508086168417925050509392505050565b6000819050919050565b600061373161372c61372784612578565b61370c565b612578565b9050919050565b6000819050919050565b61374b83613716565b61375f61375782613738565b8484546136ba565b825550505050565b600090565b613774613767565b61377f818484613742565b505050565b5b818110156137a35761379860008261376c565b600181019050613785565b5050565b601f8211156137e8576137b981612f9d565b6137c28461369d565b810160208510156137d1578190505b6137e56137dd8561369d565b830182613784565b50505b505050565b600082821c905092915050565b600061380b600019846008026137ed565b1980831691505092915050565b600061382483836137fa565b9150826002028217905092915050565b61383d826124c6565b67ffffffffffffffff811115613856576138556127c3565b5b61386082546129e0565b61386b8282856137a7565b600060209050601f83116001811461389e576000841561388c578287015190505b6138968582613818565b8655506138fe565b601f1984166138ac86612f9d565b60005b828110156138d4578489015182556001820191506020850194506020810190506138af565b868310156138f157848901516138ed601f8916826137fa565b8355505b6001600288020188555050505b505050505050565b60006060820190508181036000830152613920818661251d565b905061392f6020830185612723565b61393c604083018461260d565b949350505050565b600061394f82612578565b915061395a83612578565b925082820390508181111561397257613971613535565b5b92915050565b600081519050919050565b600082825260208201905092915050565b600061399f82613978565b6139a98185613983565b93506139b98185602086016124e2565b6139c28161250c565b840191505092915050565b60006080820190506139e2600083018761260d565b6139ef602083018661260d565b6139fc6040830185612723565b8181036060830152613a0e8184613994565b905095945050505050565b600081519050613a2881612437565b92915050565b600060208284031215613a4457613a43612401565b5b6000613a5284828501613a19565b91505092915050565b7f4552433732313a206d696e7420746f20746865207a65726f2061646472657373600082015250565b6000613a916020836124d1565b9150613a9c82613a5b565b602082019050919050565b60006020820190508181036000830152613ac081613a84565b9050919050565b7f4552433732313a20746f6b656e20616c7265616479206d696e74656400000000600082015250565b6000613afd601c836124d1565b9150613b0882613ac7565b602082019050919050565b60006020820190508181036000830152613b2c81613af0565b905091905056fe416e204e465420772f20494420257320686173206265656e206d696e74656420746f2025734142434445464748494a4b4c4d4e4f505152535455565758595a6162636465666768696a6b6c6d6e6f707172737475767778797a303132333435363738392b2fa264697066735822122058e89fdf00fee6dad8410c4870882adab236fcca05f0dccf0c73e4c9c6ef90df64736f6c634300081100333c73766720786d6c6e733d27687474703a2f2f7777772e77332e6f72672f323030302f73766727207072657365727665417370656374526174696f3d27784d696e594d696e206d656574272076696577426f783d273020302033353020333530273e3c7374796c653e2e62617365207b2066696c6c3a2077686974653b20666f6e742d66616d696c793a2073657269663b20666f6e742d73697a653a20323470783b207d3c2f7374796c653e3c726563742077696474683d273130302527206865696768743d2731303025272066696c6c3d27272f3e3c7465787420783d273530252720793d273530252720636c6173733d27626173652720646f6d696e616e742d626173656c696e653d276d6964646c652720746578742d616e63686f723d276d6964646c65273e",
  "linkReferences": {},
  "deployedLinkReferences": {}
}